VFP009012200509                                                                  Rejet pour integrite de Lot                                                                                                                                                                                                                                                  1900990090009050800000000033795367900017020140120                                                                                                                                                                                                                                                                                                                                                                                                                                                                                                                                                                                                                                                                                                                                                                                                                                                                                                                                                                                                                                                                                                                                                                                                                                                                                                                                                                                                                                                                                                                                                                                                                                                                                                                 
VFP0090122005099009090509000001                                                  Rejet pour integrite de Lot                                                                                                                                                                                                                                                  29009900900090509001000  20140121D+C+    477150      20140121                        0000000000000269999  39121                                       0                             000001                                     20140121 (DATE D'ORIGINE)         ENVOI NO: 003664                                                                                                                                                                                                                                                                                                                                                                                                                                                                                                                                                                                                                                                                                                                                                                                                                                                                                                                                                                                                                                                                                                                                                                                                                                                                                                                                                                                                                                                                                 
VFP0090122005099009090509000002                                                  Rejet pour integrite de Lot                                                                                                                                                                                                                                                  29009900900090509002000  20140121D+C+    477150      20140120                        0000000000000200000  39121                                       0                             000002                                     20140120 (DATE D'ORIGINE)         ENVOI NO: 003664                                                                                                                                                                                                                                                                                                                                                                                                                                                                                                                                                                                                                                                                                                                                                                                                                                                                                                                                                                                                                                                                                                                                                                                                                                                                                                                                                                                                                                                                                 
VFP0090122005099009090509000003                                                  Rejet pour integrite de Lot                                                                                                                                                                                                                                                  29009900900090509002000  20140121D+C+    477150      20140121                        0000000000000193160  39121                                       0                             000003                                     20140121 (DATE D'ORIGINE)         ENVOI NO: 003664                                                                                                                                                                                                                                                                                                                                                                                                                                                                                                                                                                                                                                                                                                                                                                                                                                                                                                                                                                                                                                                                                                                                                                                                                                                                                                                                                                                                                                                                                 
VFP0090122005099009090509000004                                                  Rejet pour integrite de Lot                                                                                                                                                                                                                                                  29009900900090509003000  20140121D+C+    39120                                       0000000000005369256  477100      20140121                        0                             000004                                     20140121 (DATE D'ORIGINE)         ENVOI NO: 003664                                                                                                                                                                                                                                                                                                                                                                                                                                                                                                                                                                                                                                                                                                                                                                                                                                                                                                                                                                                                                                                                                                                                                                                                                                                                                                                                                                                                                                                                                 
VFP0090122005099009090509000005                                                  Rejet pour integrite de Lot                                                                                                                                                                                                                                                  29009900900090509003000  20140121D+C+    477150      20140120                        0000000000000147082  39121                                       0                             000005                                     20140120 (DATE D'ORIGINE)         ENVOI NO: 003664                                                                                                                                                                                                                                                                                                                                                                                                                                                                                                                                                                                                                                                                                                                                                                                                                                                                                                                                                                                                                                                                                                                                                                                                                                                                                                                                                                                                                                                                                 
VFP0090122005099009090509000006                                           0005210FONCTION SEARCH (CODE PARAMETRE 25 /   ) : ERREUR D'APPEL "PCO0040020|20140103|      : CONTRAT BLOQUE  %".                R                       R05 PNC supprimé                                                                                                           29009900900090509003000  20140121D+C+    477150      20140121                        0000000000000050000  39121                                       0                             000006                                     20140121 (DATE D'ORIGINE)         ENVOI NO: 003664                                                                                                                                                                                                                                                                                                                                                                                                                                                                                                                                                                                                                                                                                                                                                                                                                                                                                                                                                                                                                                                                                                                                                                                                                                                                                                                                                                                                                                                                                 
VFP0090122005099009090509000007                                                  Rejet pour integrite de Lot                                                                                                                                                                                                                                                  29009900900090509005000  20140121D+C+    477150      20140120                        0000000000000063819  39121                                       0                             000007                                     20140120 (DATE D'ORIGINE)         ENVOI NO: 003664                                                                                                                                                                                                                                                                                                                                                                                                                                                                                                                                                                                                                                                                                                                                                                                                                                                                                                                                                                                                                                                                                                                                                                                                                                                                                                                                                                                                                                                                                 
VFP0090122005099009090509000008                                                  Rejet pour integrite de Lot                                                                                                                                                                                                                                                  29009900900090509006000  20140121D+C+    477150      20140121                        0000000000000090000  39121                                       0                             000008                                     20140121 (DATE D'ORIGINE)         ENVOI NO: 003664                                                                                                                                                                                                                                                                                                                                                                                                                                                                                                                                                                                                                                                                                                                                                                                                                                                                                                                                                                                                                                                                                                                                                                                                                                                                                                                                                                                                                                                                                 
VFP0090122005099009090509000009                                                  Rejet pour integrite de Lot                                                                                                                                                                                                                                                  29009900900090509008000  20140121D+C+    477150      20140120                        0000000000000074500  39121                                       0                             000009                                     20140120 (DATE D'ORIGINE)         ENVOI NO: 003664                                                                                                                                                                                                                                                                                                                                                                                                                                                                                                                                                                                                                                                                                                                                                                                                                                                                                                                                                                                                                                                                                                                                                                                                                                                                                                                                                                                                                                                                                 
VFP0090122005099009090509000010                                                  Rejet pour integrite de Lot                                                                                                                                                                                                                                                  29009900900090509009000  20140121D+C+    477150      20140120                        0000000000000145721  39121                                       0                             000010                                     20140120 (DATE D'ORIGINE)         ENVOI NO: 003664                                                                                                                                                                                                                                                                                                                                                                                                                                                                                                                                                                                                                                                                                                                                                                                                                                                                                                                                                                                                                                                                                                                                                                                                                                                                                                                                                                                                                                                                                 
VFP0090122005099009090509000011                                                  Rejet pour integrite de Lot                                                                                                                                                                                                                                                  29009900900090509010000  20140121D+C+    39120                                       0000000000000200000  477100      20140121                        0                             000011                                     20140121 (DATE D'ORIGINE)         ENVOI NO: 003664                                                                                                                                                                                                                                                                                                                                                                                                                                                                                                                                                                                                                                                                                                                                                                                                                                                                                                                                                                                                                                                                                                                                                                                                                                                                                                                                                                                                                                                                                 
VFP0090122005099009090509000012                                                  Rejet pour integrite de Lot                                                                                                                                                                                                                                                  29009900900090509010000  20140121D+C+    477150      20140120                        0000000000000335590  39121                                       0                             000012                                     20140120 (DATE D'ORIGINE)         ENVOI NO: 003664                                                                                                                                                                                                                                                                                                                                                                                                                                                                                                                                                                                                                                                                                                                                                                                                                                                                                                                                                                                                                                                                                                                                                                                                                                                                                                                                                                                                                                                                                 
VFP0090122005099009090509000013                                                  Rejet pour integrite de Lot                                                                                                                                                                                                                                                  29009900900090509010000  20140121D+C+    477150      20140121                        0000000000000086500  39121                                       0                             000013                                     20140121 (DATE D'ORIGINE)         ENVOI NO: 003664                                                                                                                                                                                                                                                                                                                                                                                                                                                                                                                                                                                                                                                                                                                                                                                                                                                                                                                                                                                                                                                                                                                                                                                                                                                                                                                                                                                                                                                                                 
VFP0090122005099009090509000014                                                  Rejet pour integrite de Lot                                                                                                                                                                                                                                                  29009900900090509011000  20140121D+C+    477150      20140120                        0000000000000352196  39121                                       0                             000014                                     20140120 (DATE D'ORIGINE)         ENVOI NO: 003664                                                                                                                                                                                                                                                                                                                                                                                                                                                                                                                                                                                                                                                                                                                                                                                                                                                                                                                                                                                                                                                                                                                                                                                                                                                                                                                                                                                                                                                                                 
VFP0090122005099009090509000015                                                  Rejet pour integrite de Lot                                                                                                                                                                                                                                                  29009900900090509011000  20140121D+C+    477150      20140121                        0000000000000100000  39121                                       0                             000015                                     20140121 (DATE D'ORIGINE)         ENVOI NO: 003664                                                                                                                                                                                                                                                                                                                                                                                                                                                                                                                                                                                                                                                                                                                                                                                                                                                                                                                                                                                                                                                                                                                                                                                                                                                                                                                                                                                                                                                                                 
VFP0090122005099009090509000016                                                  Rejet pour integrite de Lot                                                                                                                                                                                                                                                  29009900900090509012000  20140121D+C+    477150      20140120                        0000000000000107558  39121                                       0                             000016                                     20140120 (DATE D'ORIGINE)         ENVOI NO: 003664                                                                                                                                                                                                                                                                                                                                                                                                                                                                                                                                                                                                                                                                                                                                                                                                                                                                                                                                                                                                                                                                                                                                                                                                                                                                                                                                                                                                                                                                                 
VFP0090122005099009090509000017                                                  Rejet pour integrite de Lot                                                                                                                                                                                                                                                  29009900900090509012000  20140121D+C+    477150      20140121                        0000000000000008000  39121                                       0                             000017                                     20140121 (DATE D'ORIGINE)         ENVOI NO: 003664                                                                                                                                                                                                                                                                                                                                                                                                                                                                                                                                                                                                                                                                                                                                                                                                                                                                                                                                                                                                                                                                                                                                                                                                                                                                                                                                                                                                                                                                                 
VFP0090122005099009090509000018                                                  Rejet pour integrite de Lot                                                                                                                                                                                                                                                  29009900900090509013000  20140121D+C+    39120                                       0000000000000040000  477100      20140120                        0                             000018                                     20140120 (DATE D'ORIGINE)         ENVOI NO: 003664                                                                                                                                                                                                                                                                                                                                                                                                                                                                                                                                                                                                                                                                                                                                                                                                                                                                                                                                                                                                                                                                                                                                                                                                                                                                                                                                                                                                                                                                                 
VFP0090122005099009090509000019                                                  Rejet pour integrite de Lot                                                                                                                                                                                                                                                  29009900900090509013000  20140121D+C+    477150      20140120                        0000000000010995500  39121                                       0                             000019                                     20140120 (DATE D'ORIGINE)         ENVOI NO: 003664                                                                                                                                                                                                                                                                                                                                                                                                                                                                                                                                                                                                                                                                                                                                                                                                                                                                                                                                                                                                                                                                                                                                                                                                                                                                                                                                                                                                                                                                                 
VFP0090122005099009090509000020                                                  Rejet pour integrite de Lot                                                                                                                                                                                                                                                  29009900900090509013000  20140121D+C+    477150      20140121                        0000000000000335000  39121                                       0                             000020                                     20140121 (DATE D'ORIGINE)         ENVOI NO: 003664                                                                                                                                                                                                                                                                                                                                                                                                                                                                                                                                                                                                                                                                                                                                                                                                                                                                                                                                                                                                                                                                                                                                                                                                                                                                                                                                                                                                                                                                                 
VFP0090122005099009090509000021                                                  Rejet pour integrite de Lot                                                                                                                                                                                                                                                  29009900900090509014000  20140121D+C+    477150      20140120                        0000000000000196918  39121                                       0                             000021                                     20140120 (DATE D'ORIGINE)         ENVOI NO: 003664                                                                                                                                                                                                                                                                                                                                                                                                                                                                                                                                                                                                                                                                                                                                                                                                                                                                                                                                                                                                                                                                                                                                                                                                                                                                                                                                                                                                                                                                                 
VFP0090122005099009090509000022                                                  Rejet pour integrite de Lot                                                                                                                                                                                                                                                  29009900900090509014000  20140121D+C+    477150      20140121                        0000000000000102000  39121                                       0                             000022                                     20140121 (DATE D'ORIGINE)         ENVOI NO: 003664                                                                                                                                                                                                                                                                                                                                                                                                                                                                                                                                                                                                                                                                                                                                                                                                                                                                                                                                                                                                                                                                                                                                                                                                                                                                                                                                                                                                                                                                                 
VFP0090122005099009090509000023                                                  Rejet pour integrite de Lot                                                                                                                                                                                                                                                  29009900900090509015000  20140121D+C+    39120                                       0000000000000030000  477100      20140120                        0                             000023                                     20140120 (DATE D'ORIGINE)         ENVOI NO: 003664                                                                                                                                                                                                                                                                                                                                                                                                                                                                                                                                                                                                                                                                                                                                                                                                                                                                                                                                                                                                                                                                                                                                                                                                                                                                                                                                                                                                                                                                                 
VFP0090122005099009090509000024                                                  Rejet pour integrite de Lot                                                                                                                                                                                                                                                  29009900900090509015000  20140121D+C+    477150      20140120                        0000000000000190000  39121                                       0                             000024                                     20140120 (DATE D'ORIGINE)         ENVOI NO: 003664                                                                                                                                                                                                                                                                                                                                                                                                                                                                                                                                                                                                                                                                                                                                                                                                                                                                                                                                                                                                                                                                                                                                                                                                                                                                                                                                                                                                                                                                                 
VFP0090122005099009090509000025                                                  Rejet pour integrite de Lot                                                                                                                                                                                                                                                  29009900900090509016000  20140121D+C+    477150      20140120                        0000000000000265500  39121                                       0                             000025                                     20140120 (DATE D'ORIGINE)         ENVOI NO: 003664                                                                                                                                                                                                                                                                                                                                                                                                                                                                                                                                                                                                                                                                                                                                                                                                                                                                                                                                                                                                                                                                                                                                                                                                                                                                                                                                                                                                                                                                                 
VFP0090122005099009090509000026                                                  Rejet pour integrite de Lot                                                                                                                                                                                                                                                  29009900900090509017000  20140121D+C+    477150      20140120                        0000000000000287000  39121                                       0                             000026                                     20140120 (DATE D'ORIGINE)         ENVOI NO: 003664                                                                                                                                                                                                                                                                                                                                                                                                                                                                                                                                                                                                                                                                                                                                                                                                                                                                                                                                                                                                                                                                                                                                                                                                                                                                                                                                                                                                                                                                                 
VFP0090122005099009090509000027                                                  Rejet pour integrite de Lot                                                                                                                                                                                                                                                  29009900900090509017000  20140121D+C+    477150      20140121                        0000000000001155128  39121                                       0                             000027                                     20140121 (DATE D'ORIGINE)         ENVOI NO: 003664                                                                                                                                                                                                                                                                                                                                                                                                                                                                                                                                                                                                                                                                                                                                                                                                                                                                                                                                                                                                                                                                                                                                                                                                                                                                                                                                                                                                                                                                                 
VFP0090122005099009090509000028                                                  Rejet pour integrite de Lot                                                                                                                                                                                                                                                  29009900900090509019000  20140121D+C+    39120                                       0000000000004531002  477100      20140121                        0                             000028                                     20140121 (DATE D'ORIGINE)         ENVOI NO: 003664                                                                                                                                                                                                                                                                                                                                                                                                                                                                                                                                                                                                                                                                                                                                                                                                                                                                                                                                                                                                                                                                                                                                                                                                                                                                                                                                                                                                                                                                                 
VFP0090122005099009090509000029                                                  Rejet pour integrite de Lot                                                                                                                                                                                                                                                  29009900900090509019000  20140121D+C+    477150      20140121                        0000000000000036788  39121                                       0                             000029                                     20140121 (DATE D'ORIGINE)         ENVOI NO: 003664                                                                                                                                                                                                                                                                                                                                                                                                                                                                                                                                                                                                                                                                                                                                                                                                                                                                                                                                                                                                                                                                                                                                                                                                                                                                                                                                                                                                                                                                                 
VFP0090122005099009090509000030                                                  Rejet pour integrite de Lot                                                                                                                                                                                                                                                  2900990090009050902B000  20140121D+C+    477150      20140120                        0000000000000345000  39121                                       0                             000030                                     20140120 (DATE D'ORIGINE)         ENVOI NO: 003664                                                                                                                                                                                                                                                                                                                                                                                                                                                                                                                                                                                                                                                                                                                                                                                                                                                                                                                                                                                                                                                                                                                                                                                                                                                                                                                                                                                                                                                                                 
VFP0090122005099009090509000031                                                  Rejet pour integrite de Lot                                                                                                                                                                                                                                                  29009900900090509021000  20140121D+C+    477150      20140120                        0000000000000110000  39121                                       0                             000031                                     20140120 (DATE D'ORIGINE)         ENVOI NO: 003664                                                                                                                                                                                                                                                                                                                                                                                                                                                                                                                                                                                                                                                                                                                                                                                                                                                                                                                                                                                                                                                                                                                                                                                                                                                                                                                                                                                                                                                                                 
VFP0090122005099009090509000032                                                  Rejet pour integrite de Lot                                                                                                                                                                                                                                                  29009900900090509022000  20140121D+C+    477150      20140121                        0000000000005927700  39121                                       0                             000032                                     20140121 (DATE D'ORIGINE)         ENVOI NO: 003664                                                                                                                                                                                                                                                                                                                                                                                                                                                                                                                                                                                                                                                                                                                                                                                                                                                                                                                                                                                                                                                                                                                                                                                                                                                                                                                                                                                                                                                                                 
VFP0090122005099009090509000033                                                  Rejet pour integrite de Lot                                                                                                                                                                                                                                                  29009900900090509023000  20140121D+C+    39120                                       0000000000000000900  477100      20140120                        0                             000033                                     20140120 (DATE D'ORIGINE)         ENVOI NO: 003664                                                                                                                                                                                                                                                                                                                                                                                                                                                                                                                                                                                                                                                                                                                                                                                                                                                                                                                                                                                                                                                                                                                                                                                                                                                                                                                                                                                                                                                                                 
VFP0090122005099009090509000034                                                  Rejet pour integrite de Lot                                                                                                                                                                                                                                                  29009900900090509023000  20140121D+C+    39120                                       0000000000000003500  477100      20140121                        0                             000034                                     20140121 (DATE D'ORIGINE)         ENVOI NO: 003664                                                                                                                                                                                                                                                                                                                                                                                                                                                                                                                                                                                                                                                                                                                                                                                                                                                                                                                                                                                                                                                                                                                                                                                                                                                                                                                                                                                                                                                                                 
VFP0090122005099009090509000035                                                  Rejet pour integrite de Lot                                                                                                                                                                                                                                                  29009900900090509023000  20140121D+C+    477150      20140121                        0000000000000100000  39121                                       0                             000035                                     20140121 (DATE D'ORIGINE)         ENVOI NO: 003664                                                                                                                                                                                                                                                                                                                                                                                                                                                                                                                                                                                                                                                                                                                                                                                                                                                                                                                                                                                                                                                                                                                                                                                                                                                                                                                                                                                                                                                                                 
VFP0090122005099009090509000036                                                  Rejet pour integrite de Lot                                                                                                                                                                                                                                                  29009900900090509024000  20140121D+C+    477150      20140120                        0000000000000952773  39121                                       0                             000036                                     20140120 (DATE D'ORIGINE)         ENVOI NO: 003664                                                                                                                                                                                                                                                                                                                                                                                                                                                                                                                                                                                                                                                                                                                                                                                                                                                                                                                                                                                                                                                                                                                                                                                                                                                                                                                                                                                                                                                                                 
VFP0090122005099009090509000037                                                  Rejet pour integrite de Lot                                                                                                                                                                                                                                                  29009900900090509025000  20140121D+C+    477150      20140120                        0000000000000122878  39121                                       0                             000037                                     20140120 (DATE D'ORIGINE)         ENVOI NO: 003664                                                                                                                                                                                                                                                                                                                                                                                                                                                                                                                                                                                                                                                                                                                                                                                                                                                                                                                                                                                                                                                                                                                                                                                                                                                                                                                                                                                                                                                                                 
VFP0090122005099009090509000038                                                  Rejet pour integrite de Lot                                                                                                                                                                                                                                                  29009900900090509027000  20140121D+C+    477150      20140120                        0000000000000137000  39121                                       0                             000038                                     20140120 (DATE D'ORIGINE)         ENVOI NO: 003664                                                                                                                                                                                                                                                                                                                                                                                                                                                                                                                                                                                                                                                                                                                                                                                                                                                                                                                                                                                                                                                                                                                                                                                                                                                                                                                                                                                                                                                                                 
VFP0090122005099009090509000039                                                  Rejet pour integrite de Lot                                                                                                                                                                                                                                                  29009900900090509028000  20140121D+C+    39120                                       0000000000000154913  477100      20140121                        0                             000039                                     20140121 (DATE D'ORIGINE)         ENVOI NO: 003664                                                                                                                                                                                                                                                                                                                                                                                                                                                                                                                                                                                                                                                                                                                                                                                                                                                                                                                                                                                                                                                                                                                                                                                                                                                                                                                                                                                                                                                                                 
VFP0090122005099009090509000040                                                  Rejet pour integrite de Lot                                                                                                                                                                                                                                                  29009900900090509028000  20140121D+C+    477150      20140120                        0000000000000025000  39121                                       0                             000040                                     20140120 (DATE D'ORIGINE)         ENVOI NO: 003664                                                                                                                                                                                                                                                                                                                                                                                                                                                                                                                                                                                                                                                                                                                                                                                                                                                                                                                                                                                                                                                                                                                                                                                                                                                                                                                                                                                                                                                                                 
VFP0090122005099009090509000041                                                  Rejet pour integrite de Lot                                                                                                                                                                                                                                                  29009900900090509028000  20140121D+C+    477150      20140121                        0000000000000937000  39121                                       0                             000041                                     20140121 (DATE D'ORIGINE)         ENVOI NO: 003664                                                                                                                                                                                                                                                                                                                                                                                                                                                                                                                                                                                                                                                                                                                                                                                                                                                                                                                                                                                                                                                                                                                                                                                                                                                                                                                                                                                                                                                                                 
VFP0090122005099009090509000042                                                  Rejet pour integrite de Lot                                                                                                                                                                                                                                                  29009900900090509029000  20140121D+C+    39120                                       0000000000000050000  477100      20140120                        0                             000042                                     20140120 (DATE D'ORIGINE)         ENVOI NO: 003664                                                                                                                                                                                                                                                                                                                                                                                                                                                                                                                                                                                                                                                                                                                                                                                                                                                                                                                                                                                                                                                                                                                                                                                                                                                                                                                                                                                                                                                                                 
VFP0090122005099009090509000043                                                  Rejet pour integrite de Lot                                                                                                                                                                                                                                                  29009900900090509029000  20140121D+C+    477150      20140120                        0000000000000001350  39121                                       0                             000043                                     20140120 (DATE D'ORIGINE)         ENVOI NO: 003664                                                                                                                                                                                                                                                                                                                                                                                                                                                                                                                                                                                                                                                                                                                                                                                                                                                                                                                                                                                                                                                                                                                                                                                                                                                                                                                                                                                                                                                                                 
VFP0090122005099009090509000044                                                  Rejet pour integrite de Lot                                                                                                                                                                                                                                                  29009900900090509029000  20140121D+C+    477150      20140121                        0000000000000008000  39121                                       0                             000044                                     20140121 (DATE D'ORIGINE)         ENVOI NO: 003664                                                                                                                                                                                                                                                                                                                                                                                                                                                                                                                                                                                                                                                                                                                                                                                                                                                                                                                                                                                                                                                                                                                                                                                                                                                                                                                                                                                                                                                                                 
VFP0090122005099009090509000045                                                  Rejet pour integrite de Lot                                                                                                                                                                                                                                                  29009900900090509030000  20140121D+C+    477150      20140120                        0000000000000018383  39121                                       0                             000045                                     20140120 (DATE D'ORIGINE)         ENVOI NO: 003664                                                                                                                                                                                                                                                                                                                                                                                                                                                                                                                                                                                                                                                                                                                                                                                                                                                                                                                                                                                                                                                                                                                                                                                                                                                                                                                                                                                                                                                                                 
VFP0090122005099009090509000046                                                  Rejet pour integrite de Lot                                                                                                                                                                                                                                                  29009900900090509030000  20140121D+C+    477150      20140121                        0000000000000148548  39121                                       0                             000046                                     20140121 (DATE D'ORIGINE)         ENVOI NO: 003664                                                                                                                                                                                                                                                                                                                                                                                                                                                                                                                                                                                                                                                                                                                                                                                                                                                                                                                                                                                                                                                                                                                                                                                                                                                                                                                                                                                                                                                                                 
VFP0090122005099009090509000047                                                  Rejet pour integrite de Lot                                                                                                                                                                                                                                                  29009900900090509031000  20140121D+C+    477150      20140120                        0000000000000665501  39121                                       0                             000047                                     20140120 (DATE D'ORIGINE)         ENVOI NO: 003664                                                                                                                                                                                                                                                                                                                                                                                                                                                                                                                                                                                                                                                                                                                                                                                                                                                                                                                                                                                                                                                                                                                                                                                                                                                                                                                                                                                                                                                                                 
